:1000000002C1000030C100002EC100002CC1000060
:100010002AC1000028C1000026C1000024C1000040
:1000200022C1000020C100001EC100001CC1000050
:100030001AC1000018C1000016C1000014C1000060
:1000400012C100004DC700000EC100000CC100002D
:100050000AC1000008C1000006C1000070C600000F
:1000600002C1000036C600000BC60000FCC0000044
:10007000FAC00000F8C00000F6C00000F4C00000A4
:1000800002C70000F0C00000EEC00000ECC000009D
:10009000EAC00000E8C00000E6C00000E4C00000C4
:1000A000E2C00000E0C00000C1C60000DCC00000EB
:1000B000DAC00000D8C00000D6C000008AC6000028
:1000C000D2C00000D0C00000CEC00000CCC00000F4
:1000D000CAC00000C8C00000C6C00000C4C0000004
:1000E000C2C0000000002100240027002A002D00CB
:1000F0003000330001010000040107010A01000083
:100100002200250028002B002E00310034000201BF
:100110000000050108010B0100002000230026005B
:1001200029002C002F00320000010000030106010D
:10013000090105050505070508080808020202026D
:100140000A0A080804040404010101010101010173
:100150000303030303030303040707070C0C0C0C3E
:100160000C0C0C0C02020202060606060606060627
:100170000B0B0B0B0B0B0B0B0102102020080810B4
:100180002040102040800201020108040201010207
:1001900004081020408080402010080402018004E0
:1001A000020180402010080402010804020101023B
:1001B0000408102040800102040810204080000044
:1001C0000A0B02090C0D0E080703040100000000D1
:1001D000000000000000000000000000000000001F
:1001E00000000000000000000000121110000000DC
:1001F00000000000000000000000000000000000FF
:1002000000000000E20711241FBECFEFD1E2DEBFE5
:10021000CDBF00E00CBF12E0A0E0B2E0EEE5FAE1F5
:1002200000E00BBF02C007900D92A63DB107D9F7C1
:1002300024E0A6EDB2E001C01D92A433B207E1F7BD
:1002400011E0C3E0D1E000E006C021970109802F52
:10025000FE010E94250DC230D10780E00807A9F7F2
:1002600039D70C942D0DCCCE8F929F92AF92BF9226
:10027000FF920F931F93CF93DF93F09019042FE217
:100280002F1508F44CC020911B0408E512E0021B56
:10029000110927FD1395000F111F000F111F209149
:1002A0001A04C8E8D0E0C21BD10927FDD395CC0FB2
:1002B000DD1FCC0FDD1F4E010D2E000CAA08BB0860
:1002C0009801012E000C440B550B281939094A09D5
:1002D0005B09DC010E945D0B24EB30E040E050E064
:1002E0000E94370B820E931EA41EB51E8C169D060F
:1002F0002CF0E801801691060CF4E4012297CC0F53
:10030000DD1F2FB7F8948F2D90E0FC01EE0FFF1F3B
:10031000E80FF91FE857FC4FD283C1832FBFDF914D
:10032000CF911F910F91FF90BF90AF909F908F90B2
:100330000895AF92BF92CF92DF92EF92FF920F9308
:100340001F93CF93DF936C017B018B01040F151F6B
:10035000EB015E01AE18BF08C017D10759F06991D3
:10036000D601ED91FC910190F081E02DC601199527
:10037000892B79F7C501DF91CF911F910F91FF90E4
:10038000EF90DF90CF90BF90AF900895FC01538D18
:10039000448D252F30E0842F90E0821B930B54175F
:1003A00010F0CF96089501970895FC01918D828DEC
:1003B000981761F0A28DAE0FBF2FB11D5D968C9185
:1003C000928D9F5F9F73928F90E008958FEF9FEFC4
:1003D0000895FC01918D828D981731F0828DE80F80
:1003E000F11D858D90E008958FEF9FEF0895FC013A
:1003F000918D228D892F90E0805C9F4F821B910907
:100400008F73992708958BEE92E0F1DF21E0892B1D
:1004100009F420E0822F0895FC01A48DA80FB92FC4
:10042000B11DA35ABF4F2C91848D90E001968F731C
:100430009927848FA689B7892C93A089B1898C913B
:10044000837080648C93938D848D981306C002888A
:10045000F389E02D80818F7D80830895EF92FF9254
:100460000F931F93CF93DF93EC0181E0888F9B8DD7
:100470008C8D98131AC0E889F989808185FF15C091
:100480009FB7F894EE89FF896083E889F9898081B4
:100490008370806480839FBF81E090E0DF91CF9183
:1004A0001F910F91FF90EF900895F62E0B8D10E0A5
:1004B0000F5F1F4F0F731127E02E8C8D8E110BC015
:1004C0000FB607FCFACFE889F989808185FFF5CF5F
:1004D000CE01A2DFF2CFEB8DEC0FFD2FF11DE35A21
:1004E000FF4FF0829FB7F8940B8FEA89FB898081D8
:1004F0008062D0CFCF93DF93EC01888D8823B1F059
:10050000AA89BB89E889F9898C9185FD03C080811E
:1005100086FD0CC00FB607FCF7CF8C9185FFF2CF9C
:10052000808185FFEDCFCE0177DFEACFDF91CF91DC
:10053000089580E090E0892B21F065DF81110E9411
:10054000000080E090E0892B49F080E090E0892B6A
:1005500029F00E94000081110E94000080E090E0DC
:10056000892B49F080E090E0892B29F00E9400005F
:1005700081110E94000080E090E0892B49F080E02A
:1005800090E0892B29F00E94000081110C9400005A
:1005900008958150823108F05AC0E82FF0E0882792
:1005A000EB52FD4F8F4F0C94250DF502F902E70237
:1005B000ED02F1022703FC02020306030C03100301
:1005C00014031A031E032703220328032C0380911C
:1005D00080008F77809380000895809180008F7DC8
:1005E000F9CF80918000877FF5CF84B58F7784BD68
:1005F000089584B58F7DFBCF8091B0008F77809375
:10060000B00008958091B0008F7DF9CF8091900067
:100610008F77809390000895809190008F7DF9CF1F
:1006200080919000877FF5CF8091A0008F77809395
:10063000A00008958091A0008F7DF9CF8091A00047
:10064000877FF5CF809120018F77809320010895D7
:10065000809120018F7DF9CF80912001877FF5CF98
:100660001F93CF93DF93282F30E0F901E254FE4F20
:100670008491F901E858FE4FD491F901EE5CFE4FE8
:10068000C491CC23A1F0162F811183DFEC2FF0E071
:10069000EE0FFF1FE250FF4FA591B4918FB7F89472
:1006A000EC91111108C0D095DE23DC938FBFDF9150
:1006B000CF911F910895DE2BF8CFCF93DF9390E079
:1006C000FC01E858FE4F24918E5C9E4FFC01849102
:1006D0008823D1F090E0880F991FFC01EC51FF4F67
:1006E000A591B491FC01E250FF4FC591D4916111E5
:1006F0000EC09FB7F8948C91E22FE0958E238C93D7
:100700002881E223E8839FBFDF91CF9108958FB7BF
:10071000F894EC91E22BEC938FBFF6CF3FB7F894AF
:100720008091DF029091E002A091E102B091E2029B
:1007300026B5A89B05C02F3F19F00196A11DB11D3C
:100740003FBFBA2FA92F982F8827BC01CD01620F78
:10075000711D811D911D42E0660F771F881F991F33
:100760004A95D1F708958F929F92AF92BF92CF9200
:10077000DF92EF92FF924B015C01D0DF6B017C01B5
:10078000CDDF6C197D098E099F09683E7340810594
:100790009105B0F321E0821A9108A108B10888EE12
:1007A000C80E83E0D81EE11CF11C81149104A10441
:1007B000B10431F7FF90EF90DF90CF90BF90AF90F2
:1007C0009F908F900895089590E080E00895AF92F3
:1007D000BF92CF92DF92EF92FF920F931F93CF932E
:1007E000DF936B017A01EC01CA52DD4F28813CE0B6
:1007F000389F8001399F100D1124A0901804B12C4E
:1008000027FF1FC0FB011182108288818F5F8883C0
:1008100088819801280F311D87FD3A95F6012A1528
:100820003B051CF488818C30BCF180819181049659
:1008300080349C4908F471C0F6018081918104964E
:100840006EC088819801280F311D87FD3A952A15C1
:100850003B05DCF68881A801480F511D87FD5A959C
:10086000FA01EE0FFF1FE40FF51FE857FC4F8081E0
:1008700086FFCBCF8881F801E80FF11D87FDFA953F
:10088000CF01EE0FFF1FE80FF91FE857FC4F8081E3
:1008900060E08F73E5DEB9CF808191812881A80166
:1008A000420F511D27FD5A959A01FA01EE0FFF1FC5
:1008B000E20FF31FE857FC4F21813281820F931F13
:1008C000F7019183808388819801280F311D87FD6E
:1008D0003A95F901EE0FFF1FE20FF31FE857FC4FA7
:1008E000808186FF21C08881080F111D87FD1A9520
:1008F000F801EE0FFF1FE00FF11FE857FC4F80815A
:1009000061E08F73DF91CF911F910F91FF90EF9076
:10091000DF90CF90BF90AF90A3CE80E49CE9F70129
:10092000918380838FEF8883DF91CF911F910F9107
:10093000FF90EF90DF90CF90BF90AF90089510920E
:100940000502109204021092030210920202109209
:1009500007021092060210920102109200020895FE
:10096000CF93DF93EC0160E08E817ADE61E08E81CF
:1009700077DE60E08E8174DE8BE891E00197F1F71D
:10098000DF91CF910895CF92DF92EF92FF920F9374
:100990001F93CF93DF936C017C0187E0E80EF11C7D
:1009A000D0E0C0E0062F10E0B8010C2E02C0759513
:1009B00067950A94E2F76170F70181917F0150DE3B
:1009C0002196C430D10581F7C601DF91CF911F91E7
:1009D0000F91FF90EF90DF90CF90C2CFCF92DF9238
:1009E000EF92FF920F931F93CF93DF93EC01F62EBC
:1009F000642F8C8135DE8D818F3F11F060E030DE19
:100A00000F2D10E08F8584FF23C06E0187E0C80E94
:100A1000D11CF12CE12CB8010E2C02C07595679504
:100A20000A94E2F76170F60181916F0119DEFFEF20
:100A3000EF1AFF0A88E0E816F10469F7CE01DF91AA
:100A4000CF911F910F91FF90EF90DF90CF9088CFC3
:100A5000B80184E0759567958A95E1F7CE0193DF3B
:100A60006F2DCE01DF91CF911F910F91FF90EF90ED
:100A7000DF90CF9088CF40E061E08CE194E0AEDF82
:100A80008BE39FE10197F1F70895CF93DF9381E026
:100A900080932F041092300480E48093310480E12D
:100AA0008093320480E58093330461E080912004D8
:100AB00004DE809121048F3F11F061E0FEDD61E0F2
:100AC00080912204FADDCCE1D4E09E012C51344027
:100AD00080912B0484FD0AC084E090E021962817C1
:100AE00039073CF461E08E81E8DDEFCF88E090E0EB
:100AF000F5CF8BE39DE00197F1F760E08091200452
:100B0000AFDD60E080912204ABDD809121048F3F56
:100B100011F060E0A5DD60912B0464FD35C063E059
:100B20008CE194E030DFCBE4D6E4CE010197F1F71D
:100B300063E08CE194E027DF2197F1F763E08CE13B
:100B400094E021DF83E592E00197F1F762E08CE128
:100B500094E019DF60912B04606240E08CE194E046
:100B60003DDF84E080932C0440E06CE08CE194E075
:100B700035DF81DF82E080932D0440E066E08CE188
:100B800094E0DF91CF912ACF606240E08CE194E065
:100B900025DF8BE496E40197F1F760912B04606206
:100BA00040E08CE194E01ADF83E592E00197F1F7F1
:100BB00060912B04606240E08CE194E00FDFCACFCB
:100BC00041E00CDF81E090E00895FB0101900020FE
:100BD000E9F73197AF01461B570BDC01ED91FC9112
:100BE0000280F381E02D199446DF6CE272E08CE123
:100BF00094E0EBDF6FE070E080E090E0B4DD81E056
:100C000090E090930B0280930A02909309028093E4
:100C1000080210920502109204029093030280933E
:100C20000202109207021092060290930102809332
:100C30000002089520DF6CE372E08CE194E0C5DFF0
:100C40006FE070E080E090E08EDD81E090E09093D6
:100C50000B0280930A0290930902809308029093FA
:100C600005028093040210920302109202029093F4
:100C7000070280930602109201021092000208956A
:100C80001F920F920FB60F9211240BB60F922F9353
:100C90003F934F935F936F937F938F939F93AF9304
:100CA000BF93EF93FF938BEE92E0B6DBFF91EF9152
:100CB000BF91AF919F918F917F916F915F914F9174
:100CC0003F912F910F900BBE0F900FBE0F901F9072
:100CD00018951F920F920FB60F9211240BB60F9218
:100CE0002F938F939F93EF93FF93E091FB02F091EB
:100CF000FC028081E0910103F091020382FD1DC09E
:100D00009081809104038F5F8F7320910503821778
:100D100041F0E0910403F0E0E551FD4F958F8093A1
:100D20000403FF91EF919F918F912F910F900BBE34
:100D30000F900FBE0F901F9018958081F2CF1F92D9
:100D40000F920FB60F9211242F933F938F939F937F
:100D5000AF93BF938091DB029091DC02A091DD0202
:100D6000B091DE023091DA0223E0230F2D3758F5DF
:100D70000196A11DB11D2093DA028093DB029093AE
:100D8000DC02A093DD02B093DE028091DF0290913D
:100D9000E002A091E102B091E2020196A11DB11D15
:100DA0008093DF029093E002A093E102B093E2020D
:100DB000BF91AF919F918F913F912F910F900FBE57
:100DC0000F901F90189526E8230F0296A11DB11DC4
:100DD000D2CF1F920F920FB60F9211240BB60F9223
:100DE0002F933F934F935F936F937F938F939F9333
:100DF000AF93BF93EF93FF9348E251E064E271E059
:100E000090E080E0E4DCFF91EF91BF91AF919F9182
:100E10008F917F916F915F914F913F912F910F90A3
:100E20000BBE0F900FBE0F901F9018951F920F9240
:100E30000FB60F9211240BB60F922F933F934F933F
:100E40005F936F937F938F939F93AF93BF93EF9332
:100E5000FF9348EA50E064EA70E083E090E0B7DC9A
:100E6000FF91EF91BF91AF919F918F917F916F9182
:100E70005F914F913F912F910F900BBE0F900FBE3E
:100E80000F901F9018951F920F920FB60F9211247A
:100E90000BB60F922F933F934F935F936F937F9374
:100EA0008F939F93AF93BF93EF93FF9348E950E0E5
:100EB00064E970E082E090E08ADCFF91EF91BF91FD
:100EC000AF919F918F917F916F915F914F913F91E2
:100ED0002F910F900BBE0F900FBE0F901F90189583
:100EE0001F920F920FB60F9211240BB60F922F93F1
:100EF0003F934F935F936F937F938F939F93AF93A2
:100F0000BF93EF93FF9348E850E064E870E081E01E
:100F100090E05DDCFF91EF91BF91AF919F918F9138
:100F20007F916F915F914F913F912F910F900BBEE9
:100F30000F900FBE0F901F901895CF92DF92EF92F7
:100F4000FF920F931F93E82FF92F05C0015011094D
:100F50002109310961F1908196239417B9F305C0F5
:100F6000015011092109310911F19081962394133F
:100F7000F7CFC12CD12CE12CF12C0AC08FEFC81A6D
:100F8000D80AE80AF80A0C151D052E053F0579F068
:100F900080818623841791F36C2D7D2D8E2D9F2DBE
:100FA0001F910F91FF90EF90DF90CF90089560E038
:100FB00070E080E090E01F910F91FF90EF90DF9044
:100FC000CF900895CF931092EE021092ED0288EE2A
:100FD00093E0A0E0B0E08093EF029093F002A09342
:100FE000F102B093F20282E192E09093EC028093DE
:100FF000EB0285EC90E09093F8028093F70284EC8A
:1010000090E09093FA028093F90280EC90E0909344
:10101000FC028093FB0281EC90E09093FE028093AF
:10102000FD0282EC90E0909300038093FF0286EC37
:1010300090E09093020380930103109204031092B6
:101040000503109206031092070310921F041092DA
:101050001E0484E292E090931D0480931C048DE0B2
:1010600080932004CFEFC09321048CE0809322046E
:101070008BE0809323048AE08093240489E08093AA
:10108000250488E0809326041092270410922804F7
:101090001092290410922A0410922B04F6DC8091FD
:1010A00018048033A0F491E0980F90931804809373
:1010B000190490E0FC01EE0FFF1FE80FF91FE8573D
:1010C000FC4F88EB9BE092838183CF910895C0937E
:1010D0001904FBCFCF93DF93CDB7DEB7A1970FB63F
:1010E000F894DEBF0FBECDBF789484B5826084BD16
:1010F00084B5816084BD85B5826085BD85B581601C
:1011000085BD80916E00816080936E001092810099
:101110008091810082608093810080918100816054
:101120008093810080918000816080938000809115
:10113000B10084608093B1008091B00081608093A1
:10114000B000809191008260809391008091910025
:1011500081608093910080919000816080939000E5
:101160008091A10082608093A1008091A1008160A4
:101170008093A1008091A00081608093A000809165
:1011800021018260809321018091210181608093FF
:1011900021018091200181608093200180917A005B
:1011A000846080937A0080917A00826080937A00D4
:1011B00080917A00816080937A0080917A008068C3
:1011C00080937A001092C10061E08091040275DA88
:1011D00061E08091020271DA61E0809106026DDACD
:1011E00061E08091000269DAF0900C0261E08F2DDD
:1011F00064DA61E080910A0260DA61E080910802BD
:101200005CDA61E08F2D59DA60E083E156DA61E063
:1012100082E153DA60E081E150DA37DC2CDC6BE408
:1012200072E08CE194E0D1DC6CE572E08CE194E05A
:10123000CCDC80911904803308F050C061E085E374
:101240003CDA80911904282F30E0F901EE0FFF1FDE
:10125000E20FF31FE857FC4F9081907C95639083D9
:1012600010921A0410921B042CE0622FE2D3829F8A
:10127000B001112430E020E0AB01420F531FFA010E
:10128000EE0FFF1FE40FF51FE857FC4F908196FD0E
:1012900017C02F5F3F4F2C30310571F7813009F0B7
:1012A00066C11092800082E08093810010928500D8
:1012B00010928400B19A80916F00826080936F00D9
:1012C000E09119048E2F90E0FC01EE0FFF1FE80F54
:1012D000F91FE857FC4F808180648083E091FB0216
:1012E000F091FC0282E08083E091F702F091F80235
:1012F0001082E091F902F091FA028FEC8083109253
:101300000303E091FF02F091000386E08083E09107
:10131000FD02F091FE02808180618083E091FD02F8
:10132000F091FE02808188608083E091FD02F0915F
:10133000FE02808180688083E091FD02F091FE02D0
:1013400080818F7D80838AE590E00E94340164E68D
:1013500070E080E090E007DA2AE0822E912CA12C48
:10136000B12C39E8232E31E0332E4BE8C42E41E076
:10137000D42EEE24E394F12C60E082E171D962E096
:1013800070E080E090E0EFD961E082E169D96AE045
:1013900070E080E090E0E7D960E082E161D962E04E
:1013A00070E080E090E0DFD9F1016491E3E4F1E0E6
:1013B000E491F0E0EE0FFF1FE85EFE4F85919491FF
:1013C00000E412E42FE030E0462FB7DD611571052F
:1013D0008105910529F06F5F7F4F8F4F9F4F9F7061
:1013E0000FD220E030E04AEA53E4C0D220E030E4FB
:1013F0004CE956E49DD16093E7027093E802809334
:10140000E9029093EA028BEE92E00E94F70118162F
:1014100019060CF029C18BEE92E00E94D501909341
:10142000E6028093E5022C01990F6608770877FEA3
:10143000CAC06DE28BEE92E011D822273327A901B2
:10144000241935094609570919A2CE0181963C0194
:10145000CA01B901A501940136D1605DF30162931F
:101460003F01211531054105510591F761147104C2
:1014700021F0B3018BEE92E0A8DB6FE672E08BEE19
:1014800092E0A3DB8091E5029091E6028A35910516
:1014900009F0CDC0E1EDF1E08491F6017490E5E44E
:1014A000F1E06490662009F4A3C0811172D8E62DA2
:1014B000F0E0EE0FFF1FE85EFE4FA591B4918C9116
:1014C000782231E020E009F430E0832F922F209140
:1014D000E3023091E4022817390721F09093E402E7
:1014E0008093E30262E772E08BEE92E06EDB6FE6E0
:1014F00072E08BEE92E069DB8091E3029091E4026E
:10150000892B09F08EC04090E7025090E80260906D
:10151000E9027090EA0220E030E048E452E4C301BE
:10152000B20102D118160CF470C009DA90E080E024
:101530000E94340120E030E048E452E4C301B201EB
:1015400011D287FD58C097DA61E872E08CE194E02F
:101550003CDB6FE070E080E090E005D9F09205029E
:10156000E092040210920702109206024CCF8230E1
:1015700061F4109290008093910010929500109267
:10158000940088BB809371009BCE833069F41092E5
:10159000A00082E08093A1001092A5001092A40008
:1015A00089BB809372008CCE81118ACE109220016B
:1015B00082E08093210110922501109224018ABBC0
:1015C000809373007DCEA301920119A2CE01819672
:1015D0003C01CA01B901A501940175D0605DF30118
:1015E00062933F01211531054105510591F73ECF29
:1015F00090E080E06CCF84EB90E00E9434018AE5BB
:1016000090E00E943401F0DAFECE35DA6BE872E049
:101610008CE194E0DADA8AE590E00E9434010ADB9A
:10162000F2CEF0920D02E0920C0289D9ECCE8A370C
:10163000910529F410920D0210920C02F6CF893513
:10164000910539F418DA6AE972E08CE194E0BDDAC8
:10165000E6CF8937910509F0D6CE0DDA66EB72E058
:101660008CE194E0B2DACFCF0E94990285CE052EAC
:1016700097FB16F400940FD057FD05D024D007FC3B
:1016800002D046F408C050954095309521953F4FC3
:101690004F4F5F4F089590958095709561957F4F5E
:1016A0008F4F9F4F089531D0A59F900DB49F900DFF
:1016B000A49F800D911D11240895B7FFF4CFF3DF8F
:1016C000821B930B0895A1E21A2EAA1BBB1BFD01DE
:1016D0000DC0AA1FBB1FEE1FFF1FA217B307E40711
:1016E000F50720F0A21BB30BE40BF50B661F771F69
:1016F000881F991F1A9469F7609570958095909549
:101700009B01AC01BD01CF010895A29FB001B39F21
:10171000C001A39F700D811D1124911DB29F700DFA
:10172000811D1124911D0895A8D008F481E0089529
:101730000CD0DEC0D6D040F0CDD030F021F45F3FE9
:1017400019F0BFC0511108C1C2C0E3D098F399236A
:10175000C9F35523B1F3951B550BBB27AA27621775
:101760007307840738F09F5F5F4F220F331F441FBA
:10177000AA1FA9F333D00E2E3AF0E0E830D09150F2
:101780005040E695001CCAF729D0FE2F27D0660FDF
:10179000771F881FBB1F261737074807AB07B0E81E
:1017A00009F0BB0B802DBF01FF2793585F4F2AF034
:1017B0009E3F510568F085C0CFC05F3FECF3983E77
:1017C000DCF3869577956795B795F7959F5FC9F791
:1017D000880F911D9695879597F90895E1E0660F1A
:1017E000771F881FBB1F621773078407BA0720F093
:1017F000621B730B840BBA0BEE1F88F7E0950895FC
:10180000E89409C097FB3EF490958095709561959A
:101810007F4F8F4F9F4F9923A9F0F92F96E9BB2750
:101820009395F695879577956795B795F111F8CFCC
:10183000FAF4BB0F11F460FF1BC06F5F7F4F8F4F37
:101840009F4F16C0882311F096E911C0772321F02D
:101850009EE8872F762F05C0662371F096E8862FC5
:1018600070E060E02AF09A95660F771F881FDAF71C
:10187000880F9695879597F90895990F0008550F49
:10188000AA0BE0E8FEEF16161706E807F907C0F006
:1018900012161306E407F50798F0621B730B840B0E
:1018A000950B39F40A2661F0232B242B252B21F4E8
:1018B00008950A2609F4A140A6958FEF811D811D88
:1018C000089597F99F6780E870E060E008959FEFC2
:1018D00080EC089500240A941616170618060906C7
:1018E000089500240A941216130614060506089596
:1018F000092E0394000C11F4882352F0BB0F40F41E
:10190000BF2B11F460FF04C06F5F7F4F8F4F9F4F5D
:10191000089557FD9058440F551F59F05F3F71F0DF
:101920004795880F97FB991F61F09F3F79F0879546
:101930000895121613061406551FF2CF4695F1DFCF
:1019400008C0161617061806991FF1CF869571055F
:10195000610508940895E894BB2766277727CB0193
:1019600097F908958ADF08F48FEF08950BD0C0CF60
:10197000B1DF28F0B6DF18F0952309F0A2CFA7CF8A
:101980001124EACFC6DFA0F3959FD1F3950F50E065
:10199000551F629FF001729FBB27F00DB11D639F21
:1019A000AA27F00DB11DAA1F649F6627B00DA11DC7
:1019B000661F829F2227B00DA11D621F739FB00D6D
:1019C000A11D621F839FA00D611D221F749F3327DD
:1019D000A00D611D231F849F600D211D822F762F76
:1019E0006A2F11249F5750408AF0E1F088234AF073
:1019F000EE0FFF1FBB1F661F771F881F91505040BF
:101A0000A9F79E3F510570F05CCFA6CF5F3FECF386
:101A1000983EDCF3869577956795B795F795E795AA
:101A20009F5FC1F7FE2B880F911D9695879597F9BB
:101A30000895991B79E004C0991F961708F0961B2A
:101A4000881F7A95C9F780950895EE0FFF1F881FAC
:0E1A50008BBF0790F691E02D1994F894FFCF0C
:101A5E000300060007000400020005000E0000004F
:101A6E0000002E029901C6017A02F701D501E901A3
:101A7E0000000000E0059901E403E3034261636B9B
:101A8E0077617264206D6F76696E6700666F72772C
:101A9E00617264206D6F76696E6700707265737324
:101AAE002074686520627574746F6E00746F207395
:101ABE00746172742074686520726F626F74000DA9
:101ACE000A0073656E736F722076616C7565203DCA
:101ADE00005475726E206C65667400466F72776185
:101AEE007264206D6F76696E67004E6F2063686F4B
:101AFE006963652120446573747275637420757211
:101B0E0073656C662E00636F6D65206261636B2179
:101B1E0020492077696C6C2073656E6420616E6F4E
:061B2E00746865722E00D0
:00000001FF
